:100000000C9483060C94CA060C94CA060C94CA0677
:100010000C94CA060C94CA060C94CA060C94CA0620
:100020000C94CA060C94CA060C94D40E0C94A70F18
:100030000C941E1E0C94CA060C94CA060C94CA0694
:100040000C94CA060C94CA060C94CA060C94CA06F0
:100050000C94CA060C949F1E0C94CA060C94CA06F3
:100060000C94CA060C94CA060C94CA060C94CA06D0
:100070000C94CA060C94CA060C94CA060C94CA06C0
:100080000C94CA060C94CA060C94CA060C94CA06B0
:100090000C94CA060C94CA060C94CA060C94CA06A0
:1000A0000C94CA060C94CA060C94CA06F1A6218ABE
:1000B00050044F040E012E00650029032D00351E4B
:1000C0001F20212223242526272D2E2A2B141A080F
:1000D00015171C180C12132F3031C0041607090A0B
:1000E0000B0D0E0F33340028E1001D1B06190511FE
:1000F0001036373800E5E0E3E200002C0000000095
:10010000C03965E4351E1F20212223242526272DF2
:100110002E2A2B141A09130A0D0F181C332F3031F5
:100120002A04151617070B11080C12340028E100D9
:100130001D1B0619050E1036373800E5E0E3E20016
:10014000002C00000000C0E765E4351E1F202122BE
:1001500023242526272F302A2B343637131C090A4F
:1001600006150F382E3139041208180C070B171119
:10017000162D0028E10033140D0E1B05101A191D51
:1001800000E5E0E3E200002C00000000C0E765E4C9
:10019000351E1F20212223242526272D2E2A2B140D
:1001A00007151A050D091813332F30312A04160BC1
:1001B000170A1C1108120C340028E1001D1B100640
:1001C000190E0F36373800E5E0E3E200002C00009E
:1001D0000000C0E765E40101010101010101010125
:1001E00001010101010101010101010101010101FF
:1001F00001010101010101010101010101010001F0
:10020000010001010101010101010101005201018F
:1002100001000001000000000150514F29010101BF
:1002200001010101010101010101010101010101BE
:1002300001010101010101010101010101010101AE
:1002400001010101000101000101010101010101A0
:100250000101000101010100000100000000010195
:100260000101353A3B3C3D3E3F4041424344454C11
:1002700001C2C3C401C5014B524E4647484901C69D
:10028000AAA9A8C74A50514F2A4C00010100650194
:10029000C801014D0101010100010101010000C17E
:1002A00000000000010101010A0025303136620022
:1002B0003A200025303258000A722F632030313244
:1002C000333435363738394142434445460A000A0B
:1002D000002530325800626F756E6365213A200048
:1002E0005B735D004B6579626F617264207374614A
:1002F00072742E0A0055534220636F6E66696775EB
:100300007265642E0A005B575D005B535D005B52B3
:100310005D005B445D005B435D000A0347004800ED
:1003200036003000000012036700650065006B00B6
:100330006800610063006B00000004030904090207
:100340008D00050100A03209040000010301010035
:100350000921110100012240000705810308000A5C
:100360000904010001030102000921110100012219
:100370004D000705820308000A090402000103007A
:10038000000009211101000122360007058303083E
:10039000000A090403000203000000092111010002
:1003A0000122220007058403200001070504032021
:1003B00000010904040001030000000921110100EB
:1003C0000122390007058503100001120110010008
:1003D000000008EDFE606001000102000105010956
:1003E00006A101050719E029E71500250195087503
:1003F00001810205081901290595057501910295EC
:10040000017503910105071900297715002501954C
:100410007875018102C00631FF0974A101097515C3
:100420000026FF009520750881020976150026FF39
:1004300000952075089102C005010980A10185027F
:1004400016010026B7001A01002AB70075109501A1
:100450008100C0050C0901A1018503160100269C3D
:10046000021A01002A9C02751095018100C0050145
:100470000902A1010901A1000509190129051500B9
:10048000250195057501810295017503810105011D
:10049000093009311581257F9502750881060938D3
:1004A0001581257F950175088106050C0A3802150E
:1004B00081257F950175088106C0C005010906A147
:1004C00001050719E029E715002501950875018147
:1004D0000295017508810105081901290595057521
:1004E0000191029501750391010507190029FF1576
:1004F0000026FF00950675088100C00A00253032ED
:100500005820006B6579626F6172645F7265706F0D
:1005100072743A20004C45443A20253032580A0083
:1005200064656C5F6B65795F6269743A2063616EC4
:1005300027742064656C3A20253032580A006164C3
:10054000645F6B65795F6269743A2063616E2774DA
:10055000206164643A20253032580A00646F6E6569
:100560002E0A00626F6F746D616769632073636147
:100570006E3A202E2E2E2000290A002575002F000D
:100580002575005D280025640020002564002000FA
:1005900025640020002564007C0025303258006D61
:1005A0006F7573656B6579205B62746E7C782079FA
:1005B000207620685D287265702F61636C293A206F
:1005C0005B006D6B5F776865656C5F74696D655F17
:1005D000746F5F6D6178203D2025640A006D6B5F4C
:1005E000776865656C5F6D61785F737065656420C1
:1005F0003D2025640A006D6B5F74696D655F746FE3
:100600005F6D6178203D2025640A006D6B5F6D6130
:10061000785F7370656564203D2025640A006D6B0A
:100620005F696E74657276616C203D2025640A00F6
:100630006D6B5F64656C6179203D2025640A006DF7
:100640006B5F776865656C5F74696D655F746F5F1C
:100650006D6178203D2025640A006D6B5F776865C9
:10066000656C5F6D61785F7370656564203D202502
:10067000640A006D6B5F74696D655F746F5F6D61B7
:1006800078203D2025640A006D6B5F6D61785F7393
:1006900070656564203D2025640A006D6B5F696E9E
:1006A00074657276616C203D2025640A006D6B5F75
:1006B00064656C6179203D2025640A000A00257577
:1006C00000363A20776865656C5F74696D655F74A4
:1006D0006F5F6D61783A20000A00257500353A2079
:1006E000776865656C5F6D61785F73706565643AA6
:1006F00020000A00257500343A2074696D655F7426
:100700006F5F6D61783A20000A00257500333A204A
:100710006D61785F73706565643A20000A00257525
:1007200000323A20696E74657276616C286D7329A7
:100730003A20000A00257500313A2064656C617921
:10074000282A31306D73293A20000A092D2056617C
:100750006C756573202D0A004D3E004D25643E20CA
:10076000003F007365742064656661756C740A00EF
:10077000433E200077686572652064656C74613A59
:1007800020637572736F723D25642C2077686565F0
:100790006C3D25640A53656520687474703A2F2F88
:1007A000656E2E77696B6970656469612E6F72671B
:1007B0002F77696B692F4D6F7573655F6B65797303
:1007C0000A000A092D204D6F7573656B6579202D20
:1007D0000A4553432F713A09717569740A313A0910
:1007E00064656C6179282A31306D73290A323A09BF
:1007F000696E74657276616C286D73290A333A09E3
:100800006D61785F73706565640A343A0974696D67
:10081000655F746F5F6D61780A353A097768656561
:100820006C5F6D61785F73706565640A363A09774D
:100830006865656C5F74696D655F746F5F6D617825
:100840000A0A703A097072696E742076616C756577
:10085000730A643A097365742064656661756C7423
:10086000730A75703A092B310A646F776E3A092D55
:10087000310A706775703A092B31300A7067646FFE
:10088000776E3A092D31300A0A7370656564203D30
:100890002064656C7461202A206D61785F737065D7
:1008A0006564202A2028726570656174202F207489
:1008B000696D655F746F5F6D6178290A003F004D57
:1008C0003E2000433E20004C25640A000A092D20EA
:1008D000436F6E736F6C65202D0A4553432F713A39
:1008E00009717569740A6D3A096D6F7573656B6589
:1008F000790A000A092D204D61676963202D0A6479
:100900003A0964656275670A783A096465627567D1
:10091000206D61747269780A6B3A09646562756763
:10092000206B6579626F6172640A6D3A0964656271
:100930007567206D6F7573650A763A09766572730F
:10094000696F6E0A733A097374617475730A633A56
:1009500009636F6E736F6C65206D6F64650A302D6F
:10096000343A096C61796572302D34284631302D66
:100970004634290A506175733A09626F6F746C6F5F
:10098000616465720A653A09656570726F6D0A6E19
:100990003A094E4B524F0A000A002575002E6E6B25
:1009A000726F3A20000A002575002E737761705F20
:1009B0006261636B736C6173685F6261636B7370B8
:1009C0006163653A20000A002575002E7377617017
:1009D0005F67726176655F6573633A20000A002580
:1009E00075002E6E6F5F6775693A20000A002575E5
:1009F000002E737761705F72616C745F72677569E6
:100A00003A20000A002575002E737761705F6C61D3
:100A10006C745F6C6775693A20000A002575002EBA
:100A2000636170736C6F636B5F746F5F636F6E7421
:100A3000726F6C3A20000A002575002E7377617082
:100A40005F636F6E74726F6C5F636170736C6F6302
:100A50006B3A20000A0025303258006B65796D61D1
:100A6000705F636F6E6669672E7261773A20000A65
:100A7000002575002E6D6F7573653A20000A0025FC
:100A800075002E6B6579626F6172643A20000A000E
:100A90002575002E6D61747269783A20000A002570
:100AA00075002E656E61626C653A20000A00253083
:100AB00032580064656275675F636F6E6669672EA2
:100AC0007261773A20000A002575006465666175D9
:100AD0006C745F6C617965723A20003F004E4B5236
:100AE0004F3A206F66660A004E4B524F3A206F6EA7
:100AF0000A0074696D65725F72656164333228291A
:100B00003A202530346C580A006B6579626F617247
:100B1000645F6E6B726F3A2025580A006B657962CC
:100B20006F6172645F69646C653A2025580A006BD6
:100B30006579626F6172645F70726F746F636F6CFE
:100B40003A2025580A00686F73745F6B6579626F8D
:100B50006172645F6C65647328293A2025580A0025
:100B60000A092D20537461747573202D0A004743C0
:100B7000433A2031322E312E30204156522D4C49ED
:100B800042433A20322E312E30204156525F41529C
:100B900043483A20617672350A004F5054494F4E0F
:100BA000533A204C55464120424F4F544D414749FE
:100BB00043204D4F5553454B4559204558545241BC
:100BC0004B455920434F4E534F4C4520434F4D4DBD
:100BD000414E44204E4B524F20343039360A0042A9
:100BE00055494C443A2062623066386262392D645D
:100BF00069727479202832333A35323A3030204ADB
:100C0000756C2032312032303232290A0056494484
:100C10003A20307846454544286765656B686163CE
:100C20006B29205049443A203078363036302847F6
:100C300048363029205645523A203078303030310D
:100C40000A00444553433A20742E6D2E6B2E206BC0
:100C50006579626F617264206669726D7761726531
:100C600020666F7220474836300A000A092D205648
:100C7000657273696F6E202D0A000A6D6F7573655A
:100C80003A206F66660A000A6D6F7573653A206FC9
:100C90006E0A000A6B6579626F6172643A206F6652
:100CA000660A000A6B6579626F6172643A206F6E42
:100CB0000A000A6D61747269783A206F66660A00EC
:100CC0000A6D61747269783A206F6E0A000A646571
:100CD0006275673A206F6E0A000A64656275673A4A
:100CE000206F66660A000A0A626F6F746C6F616437
:100CF00065722E2E2E2000433E20006565636F6EC8
:100D00006669673A0A0011241FBECFEFDAE0DEBF42
:100D1000CDBF04B603FE27C080912A0290912B021A
:100D2000A0912C02B0912D028730904BA740B04B80
:100D3000D1F410922A0210922B0210922C021092DF
:100D40002D0214BE84B7877F84BF0FB6F894A89590
:100D500080916000886180936000109260000FBEF7
:100D6000E0E0F8E3099511E0A0E0B1E0EEE8F6E597
:100D700002C005900D92AC37B107D9F722E0ACE77D
:100D8000B1E001C01D92AA32B207E1F70E94110C36
:100D90000C94EB2A0C940000FF93EF93E0917C01FC
:100DA000F0917D01309709F00995EF91FF91089539
:100DB000FC018591803011F0EFDFFBCF0895FF2714
:100DC000E0E230E247FF0CC0419597FF09C0EDE239
:100DD0006095709580959095611D711D811D911D87
:100DE00027FF02C0219530E350E2AA27660F771F44
:100DF000881F991FAA1FA41710F0A41B63955A956A
:100E0000A9F7AA3008F0A95FA05DAF93F39561152B
:100E100071058105910541F7ED3211F4EF93F395DA
:100E2000F21718F43F93F395FBCF8F91B5DFFA9546
:100E3000E1F70895E991F9918591803021F08532AB
:100E400019F0AADFF9CF089520E0E89455915532C2
:100E5000C1F3503311F4689455915A3348F4505308
:100E600090F3220F022E220F220F200D250FF4CF18
:100E70000EF4219589919991533619F3533729F13D
:100E8000533559F1BC0188279927E8945C3621F441
:100E90008991999168945591543639F446EF7EF0D2
:100EA00077FF0DC08FEF9FEF0AC055374AE039F04A
:100EB000583540E121F0523642E009F00895FF93A1
:100EC000EF937DDFEF91FF91B7CFFF93EF93FC019D
:100ED00081918030B9F360DFFBCFFF93EF9368DF40
:100EE000F1CFDF93CF93CDB7DEB72596A3DFCF91B8
:100EF000DF910895972F70E02EE0929F600D711D95
:100F0000112496E4899F600D711D1124FB01E254A8
:100F1000FF4F84910895805C990BFC01EE0FFF1F39
:100F2000E455FF4F8591949108958AB1807D8AB9E7
:100F30008BB1807D8BB908950E94950780B38C7F1B
:100F400080BB81B3836081BB6E98769A8AB18F72C1
:100F50008AB98BB1806D8BB987B18F7387B988B12E
:100F6000806C88B984B1847084B985B18B6F85B980
:100F70008AE0E8E8F1E0DF01982F1D929A95E9F701
:100F8000EEE7F1E0DF011D928A95E9F708952F92CF
:100F90003F924F925F926F927F928F929F92AF9209
:100FA000BF92CF92DF92EF92FF920F931F93CF9356
:100FB000DF93CDB7DEB72E970FB6F894DEBF0FBE26
:100FC000CDBF6EE771E07E876D87509A5898A12C4F
:100FD000BB24B39470EA7A95F1F75FB16FB17CB13D
:100FE00046B136B123B199B183B1729576957695B4
:100FF00073707B2570FB882480F8912CF401EE0F30
:10100000FF1FEE0FFF1F66956B25617069831A82C3
:1010100069817A81660F771F6E2B7F2B50955170F7
:101020005B831C82EB81FC816E2B7F2B042E000CDA
:10103000550B409550954427550F441F552713E0F5
:10104000440F551F1A95E1F7462B572B32953695CD
:10105000369533703B2531703D831E826D817E81D4
:1010600004E0660F771F0A95E1F7462B572B229570
:101070002695269523702B2521702F8318862F8186
:10108000388565E0220F331F6A95E1F7242B352B55
:1010900092959F709B2590FB222420F8312CA10172
:1010A00076E0440F551F7A95E1F7242B352B982FC6
:1010B00096959B2590FB442440F8512CC2019695AF
:1010C000982F882797958795822B932B00E011E026
:1010D000189B0BC023B1022E000C330B20953095CA
:1010E000132F111F1127111F00E063B143B159B134
:1010F00039B123B16295669567706B256170660F93
:101100006A87198669857A85862B972B42954F7059
:101110004B254170440F440F4C871B86EB85FC85A3
:101120008E2B9F2B452F550F550B40955095452FD6
:10113000441F4427441F742E770C770C770C612CC6
:101140008629972932953695369533703B2531702F
:10115000F32EF29430EFF322E12C8E299F2926956D
:10116000269526952B252170D22ED294DD0C40EEAB
:10117000D422C12C8C299D29802B912BED85FE85B5
:1011800021913191FE87ED872817390761F1329758
:101190009183808380910001882311F1809118024E
:1011A00080FF1EC086ED92E00E94D8068091180252
:1011B00080FF16C0809100011F928F9381ED92E015
:1011C0009F938F930E947107809118020F900F9048
:1011D0000F900F9080FF04C08FEC92E00E94D80621
:1011E000F5E0F09300010E949507A39465E0A61630
:1011F000B9F073E0A71689F084E0A81631F091E009
:10120000A91206C0519A5998E5CE559A5D98E2CE3A
:10121000529A5A98F2E0AF2EDDCE539A5B98DACE0E
:1012200080910001882359F0815080930001882328
:1012300001F1EFE9FFE03197F1F700C0000081E034
:101240002E960FB6F894DEBF0FBECDBFDF91CF91C3
:101250001F910F91FF90EF90DF90CF90BF90AF90D4
:101260009F908F907F906F905F904F903F902F90C6
:1012700008958AE0EEE7F1E0A8E8B1E001900D9270
:101280008A95E1F7DCCFE82FF0E0EE0FFF1FE8577B
:10129000FE4F808191810895CF92DF92EF92FF926D
:1012A0000F931F93CF93DF9388EB92E00E94D806B1
:1012B00088E8E82E81E0F82EC0E0D0E093EBC92E5C
:1012C00092E0D92E0AEA12E0DF93CF93DF92CF9219
:1012D0000E94710780EB92E00E94D806F70181918D
:1012E00091917F010E94BA1D9F938F931F930F933B
:1012F0000E94710788EA92E00E94D80621968DB775
:101300009EB708960FB6F8949EBF0FBE8DBFC5302E
:10131000D105D1F6DF91CF911F910F91FF90EF9002
:10132000DF90CF90089581FF03C0229A2A980895F4
:101330002298FCCF8091A50108959FB7F894109250
:1013400094019FBF3091AA01343009F047C0209129
:10135000E9009091EC009795992797952F70922B23
:101360003093E9002091EB0020FF35C02091EE0082
:1013700027FF31C020919201222321F02091E80023
:1013800025FF29C01092920126E03091E80035FF38
:1013900014C08093F1008091E80085FD28C0809101
:1013A000E80080FFFCCF8091E8008E778093E80012
:1013B0009F709093E90080E008953091AA01343045
:1013C00051F43091EB0035FD06C02150211108C0C9
:1013D00081E0809392019F709093E9008FEF0895D0
:1013E000EFE9FFE03197F1F700C00000CECF8FB7F3
:1013F000F89421E0209394018FBFDACFCF93DF934D
:1014000000D00F92CDB7DEB72091AA01243019F594
:1014100023E029838A839B832093E9008FEF9091B7
:10142000E80095FD07C095ED9A95F1F70000815011
:101430008111F5CF8091E80085FF0DC040E050E0BC
:1014400063E070E0CE0101960E94D10C8091E8002B
:101450008E778093E8000F900F900F90DF91CF91DF
:101460000895CF93DF9300D00F92CDB7DEB72091D0
:10147000AA01243021F522E029838A839B8383E01B
:101480008093E9008FEF9091E80095FD07C095EDFE
:101490009A95F1F7000081508111F5CF8091E80015
:1014A00085FF0DC040E050E063E070E0CE010196A2
:1014B0000E94D10C8091E8008E778093E8000F9015
:1014C0000F900F90DF91CF9108952091AA012430C1
:1014D000F1F422E02093E9002FEF3091E80035FD90
:1014E00007C035ED3A95F1F7000021502111F5CFF5
:1014F0002091E80025FF0BC040E050E065E070E07F
:101500000E94D10C8091E8008E778093E8000895C6
:10151000CF93DF93D82FC92F8091AA01843089F50A
:1015200080910B01882381F180910C01882361F166
:1015300085E08093E9008FEF9091E80095FD07C06A
:1015400095E19A95F1F7000081508111F5CF8091D6
:10155000E80085FF16C040E050E060E170E08D2FAC
:101560009C2F0E94D10C8091E8008E778093E80038
:1015700080E1ED2FFC2FA5E9B1E001900D928A9555
:10158000E1F7DF91CF91089581E08093E9008FEF3B
:101590009091E80095FD07C095ED9A95F1F7000050
:1015A00081508111F5CF8091E80085FFEACF40E0BE
:1015B00050E068E070E0D3CF86E193E00E94D80667
:1015C0008091B301811109C00E94590E0E94B60E8C
:1015D0008091E20084608093E200089582E193E0CC
:1015E0000E94D8061092B30108958EE093E00C9407
:1015F000D806209193012F5F822F62E30E94802AF8
:10160000992319F0209393010895109293018091EA
:1016100094018823E1F02091AA012430B1F4909143
:10162000E9008091EC008795882787959F70892B2A
:101630002093E9009091EB0090FF04C09091EE00A0
:1016400097FD08C08F708093E9001092940108956F
:101650001092F1009091E80095FDFACF9091E8008A
:1016600090FFF0CF9091E8009E779093E800EACF4A
:1016700042E061EC81E00E94D50D42E061EC82E045
:101680000E94D50D42E061EC83E00E94D50D42E25C
:1016900061EC84E00E94D50D42E161EC85E00C94A0
:1016A000D50D8091AC01893081F148F4823009F484
:1016B00092C0833009F44DC0813041F008958A30E2
:1016C00009F479C08B3009F45FC008958091AB01B3
:1016D000813AF1F58091E800877F8093E80080915E
:1016E000AF019091B001892B61F060E080E090E063
:1016F00070E00E94200D8091E8008B778093E800D5
:10170000089560E185E991E0F3CF8091AB018132EA
:10171000F9F48091AF019091B0018B7F892BC1F4D6
:101720008091E800877F8093E8008091E80082FF45
:101730000BC08091F1008093A5018091E8008B7728
:101740008093E8000C94090E8091AA018111EDCFDD
:1017500008958091AB01813AD9F78091AF019091C2
:10176000B001892BA9F78091E800877F8093E8007A
:101770008091E80080FFFCCF80910B018093F10005
:101780008091E8008E77DCCF8091AB01813201F748
:101790008091AF019091B001892BD1F68091E80042
:1017A000877F8093E8000E94090E8091AD018093AD
:1017B0000B010C9401178091AB01813249F68091A5
:1017C000E800877F8093E8000E94090E8091AE01B7
:1017D0008093A60108958091AB01813A09F0B8CFBA
:1017E0008091E800877F8093E8008091E80080FF87
:1017F000FCCF8091A601C2CF0895089508958AE094
:1018000093E00E94D8060C94FE0B0E94DC1D809190
:10181000A701882329F00E94071E81110C94BB0C9C
:10182000089584B7877F84BF0FB6F894A8958091F8
:101830006000886180936000109260000FBE80E8B5
:1018400090E00FB6F89480936100909361000FBE12
:101850000E94FC0B0E94CE110E94590E0E94B60EEF
:101860008091E20084608093E2008DE999E00E941B
:10187000A11D78948091AA018430E1F785EF92E070
:101880000E94D8060E94D01181E091E00E943C1194
:1018900084EE92E00E94D8060E94FD0B8091AA017E
:1018A000853019F00E94D611F9CF80EE92E00E94A7
:1018B000D8060E94050CF2CF0C941C1E86E093E023
:1018C0000E94D8060C945C0C9C01DA01892F9927A0
:1018D0008330910511F160F48130910509F441C024
:1018E000029709F443C080E090E020E030E023C09C
:1018F0008132910549F18297B1F76530A0F770E028
:10190000FB01EE0FFF1FE65EFE4F208131816B5E13
:101910007E4FFB01808190E00EC0C90199272130E4
:1019200069F08230910569F0EAE3F3E0892BD9F69A
:10193000849190E09F012D933C930895E6E2F3E0BB
:10194000F7CFEAE1F3E0F4CF653068F6E62FF0E098
:10195000EE0FFF1FEC5DFE4F2081318189E090E0AA
:10196000EACF82E190E02BEC33E0E5CF8DE890E028
:101970002EE333E0E0CF80E189BD82E189BD09B487
:1019800000FEFDCF8091D8008F7D8093D80080919C
:10199000E00082608093E0008091E00081FDFCCF58
:1019A0000895AF92BF92CF92DF92FF920F931F9351
:1019B000CF93DF936C01EB018A010E94280EF82E71
:1019C000811123C00115110539F0F8018081918141
:1019D000C81BD90BC80ED91EA12CB12C2097A9F079
:1019E0008091E80085FD22C08091E8008E77809389
:1019F000E80001151105A1F0F801808191818A0D9F
:101A00009B1D9183808385E0F82E8F2DDF91CF91F0
:101A10001F910F91FF90DF90CF90BF90AF900895EE
:101A20000E94280E8823E1F2F82EEFCFF601819173
:101A30006F018093F1002197FFEFAF1ABF0ACECF5D
:101A4000FC019B018091B1019091B201861797072B
:101A500018F0672B61F0C90140E0009771F4411163
:101A60000CC08091E80082FF35C080E0089580912D
:101A7000E8008E778093E800EECF2091AA01222320
:101A8000A9F12530A9F12091E80023FD2DC0209176
:101A9000E80022FDE6CF2091E80020FFDECF309164
:101AA000F3002091F200009719F02830310558F02A
:101AB00041E02830310509F040E02091E8002E7720
:101AC0002093E800CACF41914093F10001972F5F26
:101AD0003F4FE9CF8091AA01882341F0853041F042
:101AE0008091E80083FFBDCF81E0089582E00895F2
:101AF00083E00895FC019B018091B1019091B201B6
:101B00008617970718F0672B61F0C90140E000972E
:101B100071F441110CC08091E80082FF36C080E072
:101B200008958091E8008E778093E800EECF2091B1
:101B3000AA012223B1F12530B1F12091E80023FD63
:101B40002EC02091E80022FDE6CF2091E80020FF82
:101B5000DECF3091F3002091F200009719F0283089
:101B6000310558F041E02830310509F040E020917E
:101B7000E8002E772093E800CACF44914093F1000B
:101B8000319601972F5F3F4FE8CF8091AA018823BC
:101B900041F0853041F08091E80083FFBCCF81E0C7
:101BA000089582E0089583E00895982F973028F0F3
:101BB0008F708093E90081E008959093E900242FCD
:101BC000762F50E0981731F07091EC002091ED00E5
:101BD0005091F00021FD02C09F5FE8CF3091EB00F3
:101BE0003E7F3093EB003091ED003D7F3093ED0070
:101BF0003091EB0031603093EB007093EC00209358
:101C0000ED005093F0002091EE0027FDE5CF80E03D
:101C100008958091AB0187FF13C08091E80082FF97
:101C200006C08091E8008B778093E80004C0809123
:101C3000AA018111F2CF08958091AA018823D9F3D6
:101C40008091E80080FFF8CF8091E8008E77ECCF9C
:101C50002091E4003091E50095E6A9018091EC0027
:101C60008170882331F08091E80080FF06C080E019
:101C700008952091E80022FD1BC08091AA018823CD
:101C800091F0853091F08091EB0085FD10C020919E
:101C9000E4003091E5004217530701F39150911190
:101CA000DCCF84E0089582E0089583E0089581E028
:101CB00008950E94C70E0E94CF0EE0EEF0E08081F2
:101CC00081608083E8EDF0E080818F77808319BCAC
:101CD000A7EDB0E08C918E7F8C9380818F7E808386
:101CE0001092B30108950F931F93CF93DF930E9437
:101CF000C70E0E94CF0EC8EDD0E088818F77888311
:101D000088818068888388818F7D888319BC109240
:101D1000AA011092A9011092A7011092A80100EE49
:101D200010E0F80180818B7F8083888181608883C7
:101D300042E060E080E00E94D50DE1EEF0E08081BD
:101D40008E7F8083E2EEF0E08081816080838081FD
:101D500088608083F80180818E7F808388818061A4
:101D60008883DF91CF911F910F910895E8EDF0E006
:101D700080818F7E8083E7EDF0E0808181608083C9
:101D800084E082BF81E08093B3010C94730EE8ED90
:101D9000F0E080818E7F80831092E200089510929F
:101DA000DA001092E10008951F920F920FB60F9281
:101DB00011242F933F934F935F936F937F938F9350
:101DC0009F93AF93BF93EF93FF938091E10082FFC6
:101DD0000BC08091E20082FF07C08091E1008B7F01
:101DE0008093E1000E94F90A8091DA0080FF19C017
:101DF0008091D80080FF15C08091DA008E7F80939B
:101E0000DA008091D90080FF94C080E189BD82E131
:101E100089BD09B400FEFDCF81E08093AA010E9434
:101E2000DC0A8091E10080FF19C08091E20080FF10
:101E300015C08091E2008E7F8093E2008091E200E5
:101E400080618093E2008091D80080628093D80006
:101E500019BC85E08093AA010E94FF0B8091E100EC
:101E600084FF29C08091E20084FF25C080E189BD04
:101E700082E189BD09B400FEFDCF8091D8008F7D3D
:101E80008093D8008091E1008F7E8093E100809163
:101E9000E2008F7E8093E2008091E2008160809377
:101EA000E2008091A901882309F449C084E080936D
:101EB000AA010E945E0C8091E10083FF29C08091FD
:101EC000E20083FF25C08091E100877F8093E100DD
:101ED00082E08093AA011092A9018091E1008E7F97
:101EE0008093E1008091E2008E7F8093E2008091F8
:101EF000E20080618093E20042E060E080E00E94C6
:101F0000D50D8091F00088608093F0000E94F50A62
:101F1000FF91EF91BF91AF919F918F917F916F91C1
:101F20005F914F913F912F910F900FBE0F901F9097
:101F3000189519BC1092AA010E94EE0A72CF8091E6
:101F4000E30087FF02C083E0B2CF81E0B0CF1F92F1
:101F50000F920FB60F921124FF920F931F932F939E
:101F60003F934F935F936F937F938F939F93AF9321
:101F7000BF93CF93DF93EF93FF9309EE10E0F80147
:101F80008081C091EC00C795CC27C7958F70FC2E3F
:101F9000F82A1082C0EFD0E08881877F8883789408
:101FA0000E94F00FF8011082888188608883CF2D0D
:101FB000CF70C083FF91EF91DF91CF91BF91AF912F
:101FC0009F918F917F916F915F914F913F912F9151
:101FD0001F910F91FF900F900FBE0F901F901895BB
:101FE0001F93CF93DF93CDB7DEB7AA970FB6F894C0
:101FF000DEBF0FBECDBF8BEA91E0FC0101962091C0
:10200000F100208321E0833B9207B9F70E94510B36
:102010008091E80083FF36C08091AB019091AC01C4
:102020009A3080F5E92FF0E0E351F54D0C94A02AA9
:10203000803879F0823831F58091AF018F708093CC
:10204000E9008091EB0085FB882780F91092E90078
:1020500006C08091A8019091A70191118260909192
:10206000E800977F9093E8008093F1001092F100D0
:102070008091E8008E7729C081111CC08091AD014C
:10208000813041F18091E80083FF0AC08091E8002F
:10209000877F8093E8008091EB0080628093EB0063
:1020A000AA960FB6F894DEBF0FBECDBFDF91CF91D9
:1020B0001F910895823031F78091AD01882389F016
:1020C0001092E9008091E800877F8093E8000E94E9
:1020D000090ED8CF81E0933009F080E08093A7010A
:1020E000EFCF8091AF018F70882361F28093E90078
:1020F0002091EB0020FFE4CF933031F48091EB008E
:1021000080628093EB00DCCF9091EB009061909324
:10211000EB0021E030E0A90102C0440F551F8A9571
:10212000E2F74093EA001092EA008091EB008860A9
:10213000E8CF8111A7CF1091AD011F778091E30007
:102140008078812B8093E3008091E800877F8093E3
:10215000E8000E94090E8091E80080FFFCCF80918A
:10216000E30080688093E30083E0111101C082E006
:102170008093AA0187CF8058823008F083CF809166
:10218000AD019091AE018C3D53E0950799F583E048
:102190008A838AE289834FB7F894DE01139620E0A0
:1021A0003EE051E2E32FF0E050935700849120FF8E
:1021B00003C082958F703F5F8F708A30C8F0895C52
:1021C00090E08D939D932F5F243161F74FBF8091F5
:1021D000E800877F8093E8006AE270E0CE01019614
:1021E0000E94200D8091E8008B778093E8004ACF11
:1021F000805DE6CFAE014F5F5F4F6091AF010E94FF
:10220000640CBC01892B09F43DCF8091E800877FE5
:102210008093E80089819A810E947A0DE3CF80380B
:1022200009F030CF8091E800877F8093E8008091AB
:10223000A9018093F1001CCF811124CF9091AD01B1
:10224000923008F01FCF8091E800877F8093E800EC
:102250009093A9010E94090E8091A901882331F071
:1022600084E08093AA010E94380B0CCF8091E30098
:1022700087FDF6CF81E0F5CF9093B9018093B80147
:102280000895E091B801F091B901309721F00190E3
:10229000F081E02D099480E00895EF92FF920F9372
:1022A0001F93CF93DF938C01E091B801F091B901B6
:1022B0003097A9F10280F381E02D099580911802F1
:1022C00082FF2DC080FF04C083E095E00E94D80605
:1022D000E801C80140967C010DEF14E080911802DE
:1022E00080FF0BC088811F928F931F930F930E94D2
:1022F00071070F900F900F900F902196CE15DF056C
:1023000069F78091180280FF0AC08BEF94E0DF919B
:10231000CF911F910F91FF90EF900C94D806DF9111
:10232000CF911F910F91FF90EF900895E091B80128
:10233000F091B901309721F00480F581E02D0994E6
:1023400008952091B6013091B7012817390771F02F
:102350009093B7018093B601E091B801F091B90173
:10236000309721F00680F781E02D0994089520919F
:10237000B4013091B5012817390771F09093B50178
:102380008093B401E091B801F091B901309721F048
:102390000084F185E02D0994089508950C94CD11E1
:1023A0000E94451E0E949C070C940A207F928F92E7
:1023B0009F92AF92BF92CF92DF92EF92FF920F93D4
:1023C0001F93CF93DF9300D000D00F92CDB7DEB72D
:1023D0000E94C7079BEBA92E91E0B92E00E010E008
:1023E00088248394912C702E802F0E9443097C01B5
:1023F000F501C190D1905F01C816D906B1F40F5F05
:102400001F4F0530110579F78FEF89838A831B826F
:102410000E944E1E8160782F9D838C8349815A8152
:102420006B81892F0E94AF124CC08091180281FDF0
:102430000E944C0996012E253F256901F1E0CF222B
:10244000DD24C114D10409F071C081E090E08E3028
:102450009105A9F26401082E02C0CC0CDD1C0A947F
:10246000E2F7AC014F5F5F4FB60162237323672B26
:1024700009F45EC089837A82EC20FD2081E0EF2898
:1024800009F480E08B830E944E1E8160782F9D832B
:102490008C8349815A816B81892F0E94AF124981B7
:1024A0005A816B817C818D810E94C81D000F111F94
:1024B000F801E554FE4F808191818C259D25918303
:1024C00080830E94C71D0E948E230E94411190911B
:1024D000BA01891779F10E9441118093BA01909154
:1024E00018029570953061F41F928F9385E195E005
:1024F0009F938F930E9471070F900F900F900F90F2
:102500008091BA010F900F900F900F900F90DF9174
:10251000CF911F910F91FF90EF90DF90CF90BF90E0
:10252000AF909F908F907F900C94D91D80E0A2CFA8
:10253000CA018DCF0F900F900F900F900F90DF91E9
:10254000CF911F910F91FF90EF90DF90CF90BF90B0
:10255000AF909F908F907F9008950C949309CF93A4
:10256000DF93CDB7DEB72B970FB6F894DEBF0FBE63
:10257000CDBF4F83588769877A878B878A859B85EC
:10258000892B39F0842F85238F3F19F08B850E948A
:10259000C81D1E8285E0FE013796DE01119601906E
:1025A0000D928A95E1F749815A816B817C818D81F9
:1025B0009E812B960FB6F894DEBF0FBECDBFDF9184
:1025C000CF910C946419CF93C82F882309F468C065
:1025D000823879F40E94411181FD62C089E30E9432
:1025E0009C1C0E947B1D89E30E94E91CCF910C94E6
:1025F0007B1D833859F40E94411180FD51C083E551
:102600000E949C1C0E947B1D83E5EECF843859F408
:102610000E94411182FD44C087E40E949C1C0E94DC
:102620007B1D87E4E1CF8CEF8C0F813A48F48C2F2F
:102630000E940628811134C08C2F0E949C1CD6CF8A
:1026400080E28C0F883048F4C77081E001C0880FA9
:10265000CA95EAF70E94401DC9CF8BE58C0F8330E5
:1026600068F481E890E0C53A31F082E890E0C63A3B
:1026700011F083E890E0CF910C94A111C85AC531B4
:1026800078F48AE292E0C43141F0EC2FF0E0EE0FF2
:10269000FF1FE25DFE4F80819181CF910C94B711B5
:1026A000CF910895882309F44BC0823871F40E94B9
:1026B000411181FF45C089E30E949C1C0E947B1D43
:1026C00089E30E94E91C0C947B1D833859F40E9415
:1026D000411180FF35C083E50E949C1C0E947B1D38
:1026E00083E5EFCF843859F40E94411182FF28C05E
:1026F00087E40E949C1C0E947B1D87E4E2CF9CEF34
:10270000980F913AF0F290E2980F983050F4877059
:1027100091E001C0990F8A95EAF7892F0E94461D22
:10272000D2CF9BE5980F933020F480E090E00C949A
:10273000A111885A853120F480E090E00C94B71103
:102740000895882321F00E94401D0C947B1D08955C
:10275000882321F00E94461D0C947B1D0895AF92A2
:10276000BF92DF92EF92FF920F931F93CF93DF936D
:10277000CDB7DEB729970FB6F894DEBF0FBECDBF39
:102780005C0185E0F501DE01119601900D928A95BC
:10279000E1F7F50183819481892B09F4B7C0818128
:1027A000908189238F3F09F4B1C0F280E580E294E3
:1027B0002FE0E22289819A810E94591C8C010E949B
:1027C000581C0E94A41AE12FE295EF70F0E0E95046
:1027D000F54D0C94A02AF12FFF70EF2E103118F058
:1027E000E29490EFE922FF20C9F0EE2029F08E2D2F
:1027F0000E94541D0E947B1D802F29960FB6F894CD
:10280000DEBF0FBECDBFDF91CF911F910F91FF9023
:10281000EF90DF90BF90AF900C94E312802F0E9456
:102820005213EE2009F472C08E2D0E945A1D299673
:102830000FB6F894DEBF0FBECDBFDF91CF911F91D1
:102840000F91FF90EF90DF90BF90AF900C947B1DA5
:10285000212F2F70D22E107F103219F0D29480EFDA
:10286000D822002379F0013009F460C0FF2009F478
:102870006DC0EE2059F0F501858180FFBDCF8F70CE
:10288000858304C0FF2049F1E11012C08D2D2996E7
:102890000FB6F894DEBF0FBECDBFDF91CF911F9171
:1028A0000F91FF90EF90DF90BF90AF900C94A11329
:1028B00031E08D2DE312EBCF29960FB6F894DEBFF1
:1028C0000FBECDBFDF91CF911F910F91FF90EF9081
:1028D000DF90BF90AF900C94651DE11014C00E9472
:1028E000681D8D2D29960FB6F894DEBF0FBECDBFA3
:1028F000DF91CF911F910F91FF90EF90DF90BF90EC
:10290000AF900C94A81341E0E412E9CF29960FB6DA
:10291000F894DEBF0FBECDBFDF91CF911F910F9115
:10292000FF90EF90DF90BF90AF900895FF2051F09F
:1029300055E05E1558F30E943D1D8D21882309F452
:10294000A5CFCFCF64E06E1508F3CBCFEE2049F2D0
:10295000802F29960FB6F894DEBF0FBECDBFDF9152
:10296000CF911F910F91FF90EF90DF90BF90AF90AC
:102970000C945213812F8695869583708823C9F015
:10298000813021F6C8019370F11002C080E090E020
:1029900029960FB6F894DEBF0FBECDBFDF91CF9161
:1029A0001F910F91FF90EF90DF90BF90AF900C942C
:1029B000B711C8019370F11002C080E090E0299631
:1029C0000FB6F894DEBF0FBECDBFDF91CF911F9140
:1029D0000F91FF90EF90DF90BF90AF900C94A111FA
:1029E000802FFF2099F00E943B2229960FB6F89481
:1029F000DEBF0FBECDBFDF91CF911F910F91FF9032
:102A0000EF90DF90BF90AF900C9401230E948D2235
:102A1000ECCF812F837081118EC0F11077CF202FE2
:102A2000229526952770220F220F802F8F7090E01D
:102A3000A0E0B0E0AC01BD01022E04C0440F551F60
:102A4000661F771F0A94D2F74E835F836887798762
:102A500060E070E0CB0104FF0FC06FE070E080E049
:102A600090E004C0660F771F881F991F2A95D2F740
:102A70006095709580959095169516951370123007
:102A800021F1133009F440C02E813F8148855985DA
:102A9000262B372B482B592B2E833F83488759876A
:102AA0001130A1F1CA01B90129960FB6F894DEBF21
:102AB0000FBECDBFDF91CF911F910F91FF90EF908F
:102AC000DF90BF90AF900C94CF1A2E813F81488544
:102AD0005985262B372B482B592B2E833F8348872C
:102AE0005987CA01B90129960FB6F894DEBF0FBE07
:102AF000CDBFDF91CF911F910F91FF90EF90DF90AD
:102B0000BF90AF900C94F71A0E94CF1A6E817F810C
:102B10008885998529960FB6F894DEBF0FBECDBF84
:102B2000DF91CF911F910F91FF90EF90DF90BF90B9
:102B3000AF900C94A71AFF2009F458C010FFE6CEFE
:102B4000202F229526952770220F220F802F8F701D
:102B500090E0A0E0B0E0AC01BD01022E04C0440F43
:102B6000551F661F771F0A94D2F74E835F836887CD
:102B7000798760E070E0CB0104FF0FC06FE070E088
:102B800080E090E004C0660F771F881F991F2A9588
:102B9000D2F760957095809590951695169513705F
:102BA000123041F1133009F444C02E813F81488531
:102BB0005985262B372B482B592B2E833F8348874B
:102BC00059871130C1F1CA01B90129960FB6F8949D
:102BD000DEBF0FBECDBFDF91CF911F910F91FF9050
:102BE000EF90DF90BF90AF900C94081C823008F4F7
:102BF0008DCEA6CF2E813F8148855985262B372B38
:102C0000482B592B2E833F8348875987CA01B90126
:102C100029960FB6F894DEBF0FBECDBFDF91CF91DE
:102C20001F910F91FF90EF90DF90BF90AF900C94A9
:102C3000301C0E94081C6E817F81888599852996A9
:102C40000FB6F894DEBF0FBECDBFDF91CF911F91BD
:102C50000F91FF90EF90DF90BF90AF900C94E01B2E
:102C6000013FE1F168F4003FE9F0003E78F00F70B9
:102C7000812F8F71FF2091F00E94491B802F07CE7A
:102C8000023F09F440C0033F09F452C0FF2009F499
:102C900075C0E110B1CD812F8F7124C00E947A1BC5
:102CA000802F20CEFF20B9F034E03E1508F42ECE60
:102CB000812F8F7129960FB6F894DEBF0FBECDBF5E
:102CC000DF91CF911F910F91FF90EF90DF90BF9018
:102CD000AF900C94AF1B45E0E416E8CF812F8F71C5
:102CE000FF20A9F029960FB6F894DEBF0FBECDBF26
:102CF000DF91CF911F910F91FF90EF90DF90BF90E8
:102D0000AF900C94491B812F8F71FF2059F32996A6
:102D10000FB6F894DEBF0FBECDBFDF91CF911F91EC
:102D20000F91FF90EF90DF90BF90AF900C947A1BC3
:102D3000FF2099F0812F8F7129960FB6F894DEBF8E
:102D40000FBECDBFDF91CF911F910F91FF90EF90FC
:102D5000DF90BF90AF900C94241B29960FB6F89487
:102D6000DEBF0FBECDBFDF91CF911F910F91FF90BE
:102D7000EF90DF90BF90AF900C941F1BE110E8CD57
:102D8000812F8F71C4CF412F4F70602FC5010E94DA
:102D9000A01F29960FB6F894DEBF0FBECDBFDF91FE
:102DA000CF911F910F91FF90EF90DF90BF90AF9068
:102DB0000C94FE19412F4F70602FC50129960FB654
:102DC000F894DEBF0FBECDBFDF91CF911F910F9161
:102DD000FF90EF90DF90BF90AF900C94A31F0E94E4
:102DE000621D0E942F1D0E947B1D0E9487240E944D
:102DF000012380E090E00E94A11180E090E00C941B
:102E0000B7110E94511D0C94EF160E94591C382FC7
:102E1000292F22952F702C3099F080F4243020F443
:102E2000223030F480E008952A5F2F702230D0F7EE
:102E300081E0303E10F0303FA9F708952F3091F730
:102E40009F7081E09830C8F7EDCFCF93DF9300D02B
:102E500000D00F92CDB7DEB70F900F900F900F906C
:102E60000F90DF91CF910895CF93DF9300D000D0E2
:102E700000D0CDB7DEB70F900F900F900F900F904E
:102E80000F90DF91CF9108950F931F93CF93E0910F
:102E9000C501C6E08091C6018E1304C0CF911F9179
:102EA0000F9108950E2F10E0CE9FF0011124E953E9
:102EB000FE4F4081518162817381848195810E949E
:102EC0003417F8013196E770E5CF4091F701509142
:102ED000F8016091F9017091FA018091FB019091E4
:102EE000FC010C943417CF938091FC01803108F0E1
:102EF0005EC08091F901882309F459C08091C50111
:102F00002091C601A091F7013091F8016091FA017A
:102F10007091FB01B32FBA23C6E0281709F447C00C
:102F200090E06115710509F44AC0BF3F09F447C03C
:102F3000C89FF001C99FF00D1124E953FE4F418154
:102F4000341330C040814A1334C04281411131C032
:102F50000380F481E02DAF01461B570BE617F707FE
:102F6000E0F0483C510528F52091FC012F702061CC
:102F70002093FC0126E0289FF001299FF00D1124E9
:102F8000E453FE4F80818F708061808387EF91E0F2
:102F90000E94AF13CF910C94441741505109483C03
:102FA000510510F30196877099272813BECFCF9152
:102FB00008950196877099272813BACFF8CF019604
:102FC0008770ABCFAF92BF92DF92EF92FF920F93D9
:102FD0001F93CF93DF93CDB7DEB72B970FB6F8943F
:102FE000DEBF0FBECDBF8C0185E0F801DE01179674
:102FF00001900D928A95E1F7D8011296FC901297F4
:103000002C9111963C9111971396AD90BC904091E4
:10301000F7015091F801E091FA01F091FB0130972E
:1030200009F449C1842F85238F3F09F444C1D0900E
:10303000F901C5018E1B9F0BDD2009F4FAC06091D8
:10304000FC01AE16BF06D8F0883C910590F16031C6
:1030500008F0DCC04F81588569857A858B850E9490
:10306000251787EF91E00E94AF1386E0E7EFF1E0CC
:10307000DF011D928A95E9F70E94651733C0019719
:10308000883C910520F7603178F1351394C04213E4
:1030900092C0F11090C0F8016583C8010E94AF137F
:1030A00086E0F801A7EFB1E001900D928A95E1F773
:1030B000A8C0603150F7EF2C35131EC042131CC05E
:1030C000F11026C08091FC018F7080618093FC011B
:1030D0000E94651787EF91E00E94AF138091FC0179
:1030E000F8018583E12C52C0EF2C351302C0421742
:1030F00039F3AB2809F45BC0832F82238F3F09F497
:1031000056C0E091C5018091C60196E0FF20C9F04C
:103110008091FC0181608093FC01E4CF4E2F50E050
:103120009E9FF0011124E953FE4F6181361306C0C2
:103130006081261303C062816111D4CFFA013196F8
:10314000E770E813EBCF8F8198850E94591C292FD7
:1031500022952F70903248F49F70992311F08823A4
:10316000A9F0805E883090F004C0225F2F7022307A
:1031700028F0C8010E94AF13ED2C08C09F7099235E
:1031800081F3D80115969C91903158F78E2D2B968E
:103190000FB6F894DEBF0FBECDBFDF91CF911F9168
:1031A0000F91FF90EF90DF90BF90AF900895FF20B8
:1031B00009F498CFADCF8F8198850E940517882399
:1031C00009F46DC0FF2009F46AC08091FC018032CF
:1031D00070F02091F7013091F8013A8329831B8226
:1031E000BD82AC828E83CE0101960E94AF1386E031
:1031F000F801A7EFB1E001900D928A95E1F70E94E6
:1032000073170E946517EE24E394C0CF3513D3CF14
:103210004213D1CFF110CFCFF8016583C8010E94CE
:10322000AF13E7EFF1E086E0DF011D928A95E9F741
:10323000EACFAE16BF06E8F0883C9105A0F5FF2066
:1032400071F1351321C042131FC08091FC0180FD34
:1032500012C0803180F0F8018583982F907F903FD5
:1032600009F41BCF982F907F905F8F70892B8583F7
:1032700014CF0197E1CF86E0F801A7EFB1E001900C
:103280000D928A95E1F7BFCF8F8198850E9405172F
:103290008111ADCF8091FC0181608093FC01C80158
:1032A0000E94AF13B0CF4F81588569857A858B8591
:1032B0000E942517DACEFF2091F38F8198850E9416
:1032C0000517882361F393CF1F93CF93DF93CDB777
:1032D000DEB72C970FB6F894DEBF0FBECDBF4F837D
:1032E000588769877A878B879C87CE0107960E94CB
:1032F000E217882309F18A859B85892B61F058851F
:103300004F81852F84238F3F31F069857A858B85A6
:103310009C850E94341716E08091C5019091C601EA
:1033200089134AC02C960FB6F894DEBF0FBECDBFEE
:10333000DF91CF911F91089586E0FE013796DE015F
:10334000119601900D928A95E1F78F8198852091D1
:10335000C6014091C5016A857B85672BE1F289230F
:103360008F3FC9F230E0C90101968770992750E07C
:103370008417950771F40E9401171092C6011092EC
:10338000C50186E0E7EFF1E0DF011D928A95E9F7DC
:10339000C2CF96E0929FD001939FB00D1124A95304
:1033A000BE4FFE01319601900D929A95E1F7809300
:1033B000C6010E944417AFCF189FC0011124895342
:1033C0009E4F0E94E217882309F4ACCFE091C5011B
:1033D0001E9FF0011124E953FE4F4081518162810B
:1033E0007381848195810E9434178091C50190E09A
:1033F0000196877099278093C5018ECFEF92FF9237
:103400000F931F93CF93DF938C01892BA1F0F12CA5
:10341000E12CE8012196F8018491853709F46AC00E
:1034200088F4843709F44CC0843008F072C08130CD
:10343000E9F0823091F1DF91CF911F910F91FF90D0
:10344000EF900895883709F461C040F4863709F099
:1034500057C00E943D1DF82E8E0138C09CE7980F82
:10346000903748F78F770E945213F6CFFE01849170
:1034700090E2980F983060F4877091E001C0990F46
:103480008A95EAF7892F0E94541D0E947B1D02C075
:103490000E94E3120E5F1F4F19C0FE01849190E25B
:1034A000980F983050F4877091E001C0990F8A9579
:1034B000EAF7892F0E945A1DE8CF0E945213EACFE3
:1034C0000E5F1F4FFE01C491C1110CC08E2D8823C9
:1034D00009F49FCFEFE9FFE03197F1F700C000005A
:1034E0008150F5CF8FE99FE00197F1F700C0000010
:1034F000C150EACF0E5F1F4FFE01C491EC2EE6CF04
:103500008F2D0E944E1D0E947B1DA6CF0E94511D33
:10351000FACF0E94E312A0CF6093010270930202DF
:1035200080930302909304020E94D71D0C94EF161F
:103530006093FD017093FE018093FF019093000260
:103540000E94D81D0C94EF1608950C948C1ACF93FA
:10355000DF9300D000D0CDB7DEB769837A838B8349
:103560009C838091010290910202A0910302B0918C
:10357000040229813A814B815C81282B392B4A2B0B
:103580005B2B29833A834B835C83CA01B9010F907B
:103590000F900F900F90DF91CF910C948C1ACF93D6
:1035A000DF9300D000D0CDB7DEB769837A838B83F9
:1035B0009C838091010290910202A0910302B0913C
:1035C000040229813A814B815C81282339234A23D3
:1035D0005B2329833A834B835C83CA01B9010F9033
:1035E0000F900F900F90DF91CF910C948C1ACF9386
:1035F000DF9300D000D0CDB7DEB769837A838B83A9
:103600009C838091010290910202A0910302B091EB
:10361000040229813A814B815C81282739274A2776
:103620005B2729833A834B835C83CA01B9010F90DE
:103630000F900F900F90DF91CF910C948C1A60E057
:1036400070E0CB010C94981A0F931F93CF93DF93E4
:1036500000D000D0CDB7DEB741E050E060E070E0D0
:103660008A019B0104C0000F111F221F331F8A957E
:10367000D2F709831A832B833C83C901B8010F90C9
:103680000F900F900F90DF91CF911F910F910C949D
:10369000981A0F931F93CF93DF9300D000D0CDB72C
:1036A000DEB741E050E060E070E004C0440F551F19
:1036B000661F771F8A95D2F78091FD019091FE01D8
:1036C000A091FF01B09100028A019B01082B192BE8
:1036D0002A2B3B2B09831A832B833C83C901B80116
:1036E0000F900F900F900F90DF91CF911F910F913E
:1036F0000C94981A0F931F93CF93DF9300D000D0B0
:10370000CDB7DEB741E050E060E070E004C0440FA8
:10371000551F661F771F8A95D2F740955095609583
:1037200070958091FD019091FE01A091FF01B091F3
:1037300000028A019B01082319232A233B230983C2
:103740001A832B833C83C901B8010F900F900F900F
:103750000F90DF91CF911F910F910C94981A0F93B6
:103760001F93CF93DF9300D000D0CDB7DEB741E0F9
:1037700050E060E070E004C0440F551F661F771FE3
:103780008A95D2F78091FD019091FE01A091FF01F1
:10379000B09100028A019B01082719272A273B279D
:1037A00009831A832B833C83C901B8010F900F90C2
:1037B0000F900F90DF91CF911F910F910C94981A59
:1037C000CF93DF9300D000D0CDB7DEB769837A8383
:1037D0008B839C838091FD019091FE01A091FF015C
:1037E000B091000229813A814B815C81282B392BD1
:1037F0004A2B5B2B29833A834B835C83CA01B90133
:103800000F900F900F900F90DF91CF910C94981A1A
:10381000CF93DF9300D000D0CDB7DEB769837A8332
:103820008B839C838091FD019091FE01A091FF010B
:10383000B091000229813A814B815C812823392390
:103840004A235B2329833A834B835C83CA01B901F2
:103850000F900F900F900F90DF91CF910C94981ACA
:10386000CF93DF9300D000D0CDB7DEB769837A83E2
:103870008B839C838091FD019091FE01A091FF01BB
:10388000B091000229813A814B815C812827392738
:103890004A275B2729833A834B835C83CA01B9019A
:1038A0000F900F900F900F90DF91CF910C94981A7A
:1038B0000895CF92DF92EF92FF920F931F93CF93D1
:1038C000DF938C01C090FD01D090FE01E090FF01DC
:1038D000F09000028091010290910202A0910302F7
:1038E000B0910402C82AD92AEA2AFB2ACFE1D0E003
:1038F000D701C6010C2E04C0B695A795979587955C
:103900000A94D2F780FF07C0B8018C2F0E94E41EF2
:103910009C01019739F4219758F7B80180E00E9483
:10392000E41E9C01C901DF91CF911F910F91FF907F
:10393000EF90DF90CF90089590910B01992361F162
:1039400090910C01992341F1982F96959695969513
:10395000883788F4E0910D01F0910E01E90FF11D17
:10396000877021E030E001C0220F8A95EAF781815B
:10397000822B818308959091180290FF22C01F929C
:103980008F938EE395E09F938F930E9471070F9022
:103990000F900F900F90089520910D0130910E011E
:1039A000F90132969FEF40E05191851751F09F3F0A
:1039B00019F4511101C0942F4F5F4E30A9F79F3F6A
:1039C00009F40895290F311D97FD3A95F901828375
:1039D000089590910B01992381F190910C01992305
:1039E00061F1982F9695969596958837A8F4E09171
:1039F0000D01F0910E01E90FF11D877021E030E01B
:103A0000A90102C0440F551F8A95E2F7CA018095AB
:103A100091818923818308959091180290FF1EC09F
:103A20001F928F9380E295E09F938F930E9471077E
:103A30000F900F900F900F90089520910D013091ED
:103A40000E01F9013296205F3F4F9191891303C017
:103A5000DF0111971C92E217F307B9F7089581E08F
:103A600090E0E0910D01F0910E01E80FF91F108236
:103A7000019680319105A9F7089580911702089564
:103A800090911702982B909317020895982F909574
:103A9000809117028923809317020895809317025B
:103AA000089510921702089590911602982B909302
:103AB00016020895982F909580911602892380937D
:103AC0001602089510921602089580930502089533
:103AD00010920502089520910D0130910E01F90117
:103AE0003196205F3F4F80E0919191118F5FE217F7
:103AF000F307D1F70895E0910D01F0910E01809147
:103B000017028083E0910D01F0910E018081909168
:103B10001602892B808390910502992361F0E09130
:103B20000D01F0910E018081892B80830E946B1D15
:103B300081111092050280910D0190910E010C945B
:103B40004D1190937D0180937C010895829594E0BE
:103B5000899F900111242C7C869586958373282B50
:103B600030E0C901880F991F8A7A35952795257508
:103B7000822B0895CF93DF93D92F0E94A61DC82FC3
:103B80008D2F0E94A61D9C2FDF91CF91089508953F
:103B9000CF93DF9300D000D00F92CDB7DEB70F9058
:103BA0000F900F900F900F90DF91CF91089508958F
:103BB00008950C94AD1208958091AA01843021F1EA
:103BC0001092190288E190E020E40FB6F894A895CD
:103BD000809360000FBE2093600083B7817F846074
:103BE00083BF83B7816083BF7894889583B78E7FC6
:103BF00083BF0FB6F894A895809160008861809388
:103C00006000109260000FBE089508950895CF934C
:103C10000E94051E0E94C7070E94061EC0E08C2F4E
:103C20000E944309892B31F4CF5FC530C1F780E092
:103C3000CF91089581E0FCCF0C9401171F921FB61D
:103C40001F9211248F939F93AF93BF93809119027A
:103C5000811113C080911A0290911B02A0911C0245
:103C6000B0911D024196A11DB11D80931A0290933F
:103C70001B02A0931C02B0931D02BF91AF919F91B4
:103C80008F911F901FBE1F90189582E084BD93E016
:103C900095BD9AEF97BD80936E0008952FB7F89465
:103CA00080911A0290911B02A0911C02B0911D02FA
:103CB0002FBF0895CF93DF9300D000D0CDB7DEB7EC
:103CC0008FB7F89420911A0230911B0240911C0288
:103CD00050911D0229833A834B835C838FBF698196
:103CE0007A818B819C810F900F900F900F90DF91C4
:103CF000CF910895CF92DF92EF92FF929C014FB740
:103D0000F89480911A0290911B02A0911C02B0912C
:103D10001D024FBF6C017D01EE24FF24A90160E06C
:103D200070E0C416D506E606F70638F0821B930B42
:103D3000FF90EF90DF90CF9008950197F7CF1F92FB
:103D40001FB61F9211248F939F93AF93BF938091BF
:103D50001A0290911B02A0911C02B0911D020196C3
:103D6000A11DB11D80931A0290931B02A0931C0207
:103D7000B0931D02BF91AF919F918F911F901FBE75
:103D80001F9018950E94590EF8942FEF87EA91E63C
:103D9000215080409040E1F700C0000087E090EBA8
:103DA000DC0180932A0290932B02A0932C02B09303
:103DB0002D0288E19CE00FB6F894A89580936000EE
:103DC0000FBE90936000FFCF0E947A07803E48F5B7
:103DD000803CD0F5813309F479C070F4893209F45C
:103DE0006EC08A3209F479C0843010F5813009F050
:103DF00042C081E090E00895893341F1823831F189
:103E0000853309F455C08D3B08F06EC0883A08F040
:103E100080C0853A68F0853A09F076C081E890E480
:103E20000895833E71F130F4803EC1F0823EE9F0A6
:103E300090E00895863E61F1873E99F1C8F3803F96
:103E4000D0F090E0906508950C948B0790911E023D
:103E50009370992369F380EE90E0089580911E029B
:103E600080FFF9CF89E390E0089580911E0282FFE0
:103E70000CC084FF03C080E090E0089583EE90E0E2
:103E8000089580911E0282FFF4CF82EE90E00895A3
:103E900080911E0283FF09C084FDEDCF87EE90E084
:103EA000089580911E0283FFF7CF86EE90E008957B
:103EB00080911E0285FF07C089E290E008958091FD
:103EC0001E0285FFF9CF85E390E0089580911E02E0
:103ED00086FF07C08AE290E0089580911E0286FF67
:103EE000F9CF81E390E008958F3B29F60E940117F6
:103EF0002FEF80E792E0215080409040E1F700C032
:103F000000000E94C21EB7CF863A89F482E890E48E
:103F10000895883A79F0E7E5E80F8C3B71F0F0E01E
:103F2000EE0FFF1FEA5AFE4F80819181089583E8CA
:103F300090E4089582EE94E408958AE296E4089568
:103F400080E090E008950895BF92CF92DF92EF92C3
:103F5000FF920F931F93CF93DF93EC01B12CEE24CC
:103F6000E394F12C8B2D0E9443098C01C12CD12CA0
:103F7000C7010C2C02C0880F991F0A94E2F7802316
:103F80009123892B31F16C2D7B2D80E00E94E41E62
:103F90009C018C179D0791F0303160F0832F807D5C
:103FA000803141F0832F8077803221F0832F807F12
:103FB000803B79F430E02C173D0759F481E0DF9124
:103FC000CF911F910F91FF90EF90DF90CF90BF9016
:103FD00008958FEFC81AD80A8EE0C816D10441F6AA
:103FE000B39485E0B812BECF80E0E9CFCF93DF93E2
:103FF000D82FC92F8CE290E00E94A41F882331F0B3
:104000008D2F9C2FDF91CF910C94A41F80E0DF9126
:10401000CF910895CF93DF9300D000D0CDB7DEB716
:104020000E948721811102C00E946D2183E695E0E4
:104030000E94D80624E629830E94C7078FE39CE9E3
:104040000197F1F700C00000998191509983911177
:10405000F3CF8CE595E00E94D80689E290E00E94BB
:10406000F61F811133C18AE290E00E94F61F811190
:104070000E946D2185E090E00E94F61F81110E9450
:10408000C21E0E94DB1D0E9492218093180287E0CD
:1040900090E00E94F61F882379F08BE190E00E9467
:1040A000F61F882309F4E2C090911802892F8D7FB2
:1040B00091FF826080931802809118020E949621DD
:1040C0000E94A42180931E0280EE90E00E94F61FC1
:1040D000882341F090911E02892F8E7F90FF81608E
:1040E00080931E0289E390E00E94F61F882341F02E
:1040F00090911E02892F8D7F91FF826080931E0216
:1041000082EE90E00E94F61F882341F090911E02FB
:10411000892F8B7F92FF846080931E0286EE90E051
:104120000E94F61F882341F090911E02892F877FFD
:1041300093FF886080931E0283EE90E00E94F61F3A
:10414000882341F090911E02892F8F7E94FF806119
:1041500080931E0285E390E00E94F61F882341F0C1
:1041600090911E02892F8F7D95FF806280931E02A1
:1041700081E390E00E94F61F882341F090911E0297
:10418000892F8F7B96FF806480931E0281E190E0EF
:104190000E94F61F882341F090911E02892F97FB01
:1041A00087F9805880931E0280911E020E94A821E8
:1041B00080911E0287FB882780F980930C0187E29B
:1041C00090E00E94F61F89838EE190E00E94F61F26
:1041D000882319F0A981A260A9838FE190E00E9451
:1041E000F61F882319F0B981B460B98380E290E0AA
:1041F0000E94F61F882319F029812860298381E213
:1042000090E00E94F61F882319F0398130613983CC
:1042100082E290E00E94F61F882319F049814062F3
:10422000498383E290E00E94F61F8823F1F15981CF
:104230005064598384E290E00E94F61F81113BC0D4
:1042400089810E949F213981232F30E040E050E096
:1042500029833A834B835C83CA01B9010F900F9085
:104260000F900F90DF91CF910C94A51A8EE090E003
:104270000E94F61F882339F090911802892F8B7FB6
:1042800092FF846017CF80E190E00E94F61F90912A
:104290001802882329F0892F877F93FF88600ACF2F
:1042A000892F8E7F90FF816005CF84E290E00E948D
:1042B000F61F882321F0898180688983C1CF998185
:1042C0009111BECF0E949B21282FBFCF0F900F903E
:1042D0000F900F90DF91CF9108956DEE7EEF80E00B
:1042E00090E00E94D62A60E082E090E00E94C82A16
:1042F00060E083E090E00E94C82A60E084E090E003
:104300000E94C82A60E085E090E00C94C82A80E012
:1043100090E00E94C22A9C0181E02D3E3E4F09F0B0
:1043200080E0089582E090E00C94BA2A682F82E041
:1043300090E00C94C82A83E090E00C94BA2A682F8D
:1043400083E090E00C94C82A84E090E00C94BA2AB0
:10435000682F84E090E00C94C82A8091210280FFAD
:1043600012C06091120185E0689FB001112475951B
:1043700067957595679560387105E8F56115710564
:10438000E1F1862F089581FF09C06091120185E057
:10439000689FB001112475956795EDCF82FF07C026
:1043A0006091120185E0689FB0011124E4CF209153
:1043B00022022223E9F0609111018091120190E024
:1043C000261738F025E0289FB001299F700D112491
:1043D000D2CF289FA001299F500D112425E0249FB2
:1043E000C001259F900D112470E00E948C2AC3CF3C
:1043F00065E070E0C6CF8FE7089581E00895809171
:10440000210280FF0CC06091100170E075956795E6
:10441000759567956115710561F1862F089581FF86
:1044200006C06091100170E075956795F3CF6091BB
:10443000100170E082FD15C0209122022223B1F00C
:1044400090910F016091100170E0291750F4269FA0
:10445000A001279F500D1124692F70E0CA010E940E
:104460008C2A60387105B0F28FE7089561E070E042
:10447000D4CF81E00895E0E1E80F803F08F444C024
:10448000F0E0E95FF44D0C94A02A0E94AD218195E3
:104490008093250208950E94AD21FACF0E94AD219C
:1044A00081958093240208950E94AD21FACF0E9445
:1044B000FF218093260208950E94FF218195F9CF64
:1044C0000E94FF2181958093270208950E94FF2179
:1044D000FACF809123028160809323020895809116
:1044E00023028260F9CF809123028460F5CF80910E
:1044F00023028860F1CF809123028061EDCF80910B
:1045000021028160809321020895809121028260BE
:10451000F9CF809121028460F5CF209126029091FD
:1045200027024091250230912402803F99F447FDF3
:10453000109225028091240290912502892B90915E
:104540002602892B90912702892B811102C010929B
:1045500022020895813F19F4141654F3EBCF823FE1
:1045600029F437FFE7CF10922402E4CF833F19F4F8
:104570001316CCF3DFCF893F29F41216DCF6109224
:104580002602D8CF8A3F19F427FFD4CFF8CF8B3F2C
:1045900029F497FFCFCF10922702CCCF8C3F19F48C
:1045A0001916CCF3C7CFECE0E80F843F08F4C2CF74
:1045B000F0E0E95EF44D0C94A02A809123028E7FF6
:1045C00080932302B7CF809123028D7FF9CF809112
:1045D00023028B7FF5CF80912302877FF1CF8091DB
:1045E00023028F7EEDCF809121028E7F8093210266
:1045F000A1CF809121028D7FF9CF809121028B7F05
:10460000F5CF8091180283FF7EC08FE995E00E946C
:10461000D806809123021F928F938AE995E09F9399
:104620008F930E94710788E995E00E94D8068091D7
:104630002402282F082E000C330B3F938F9385E91B
:1046400095E09F938F930E94710783E995E00E9404
:10465000D80680912502282F082E000C330B3F939B
:104660008F9380E995E09F938F930E9471078EE866
:1046700095E00E94D80680912602282F082E000C73
:10468000330B3F938F938BE895E09F938F930E941A
:10469000710789E895E00E94D80680912702282FAB
:1046A000082E000C330B3F938F9386E895E09F9381
:1046B0008F930E94710783E895E00E94D80680914D
:1046C00022021F928F9380E895E09F938F930E9420
:1046D00071078EE795E00E94D806809121021F9213
:1046E0008F938BE795E09F938F930E94710788E7E4
:1046F00095E00E94D8068DB79EB74C960FB6F894F9
:104700009EBF0FBE8DBF83E292E00E9496110E9471
:104710004E1E9093200280931F020895CF93DF9343
:1047200000D000D00F92CDB7DEB780911F029091DC
:1047300020020E947A1E9C0180912202882371F03F
:104740004091130150E02417350710F50F900F909A
:104750000F900F900F90DF91CF9108954091140129
:104760009AE0499FA00111242417350778F390910E
:1047700024029111C1C090912502911119C090910C
:104780002602911115C09091270291110FC0DECF22
:10479000909124029111AEC020912602909127029F
:1047A00030912502311102C0222379F38F3F19F095
:1047B0008F5F809322028091240287FF05C00E94B0
:1047C000AD2181958093240280912502181624F44E
:1047D0000E94AD21809325028091250287FF05C0AC
:1047E0000E94AD2181958093250280912402882327
:1047F00009F455C0A0912502AD83AA2309F44FC046
:10480000282F880F330B440B550B29833A834B8396
:104810005C83CA01B9010E94872923E333E343E3A0
:104820005FE369837A838B839C8369817A818B813F
:104830009C810E94EB2969837A838B839C836981A5
:104840007A818B819C810E944F29609324028D8103
:10485000082E000C990BAA0BBB0B89839A83AB83A0
:10486000BC83BC01CD010E94872923E333E343E3EA
:104870005FE369837A838B839C8369817A818B81EF
:104880009C810E94EB2969837A838B839C83698155
:104890007A818B819C810E944F29609325028091AF
:1048A0002602181624F40E94FF218093260280918C
:1048B000260287FF05C00E94FF2181958093260272
:1048C00080912702181624F40E94FF21809327026A
:1048D0008091270287FF05C00E94FF218195809368
:1048E00027020F900F900F900F900F90DF91CF91B4
:1048F0000C9401238F3F19F08F5F809322021916C9
:104900000CF059CF0E94AD218093240254CF85E052
:10491000E3E2F2E0DF011D928A95E9F710922202AC
:1049200010922102089582EC97E00E94D8061F920F
:1049300081E08F931F9285E08F9384E797E09F93A8
:104940008F930E9471070F900F900F900F900F9010
:104950000F900895843009F44DC038F4823031F15D
:104960008330B1F1813041F00895853009F454C0AD
:10497000863009F463C0089580911401482F460FD2
:104980005527551F860F4F3F51050CF08FEF809331
:1049900014011F928F938DEA96E09F938F930E944C
:1049A00071070F900F900F900F9008958091130151
:1049B000482F460F5527551F860F4F3F51050CF0C6
:1049C0008FEF809313011F928F938BE996E0E5CFD1
:1049D00080911201482F460F5527551F860F4F3FD4
:1049E00051050CF08FEF809312011F928F9388E88E
:1049F00096E0D3CF80911101482F460F5527551FC0
:104A0000860F4F3F51050CF08FEF809311011F92DD
:104A10008F9383E796E0C1CF80911001482F460F16
:104A20005527551F860F4F3F51050CF08FEF809390
:104A300010011F928F938AE596E0AFCF80910F010E
:104A4000482F460F5527551F860F4F3F51050CF035
:104A50008FEF80930F011F928F938FE396E09DCF8E
:104A6000843009F441C038F4823011F1833071F19F
:104A7000813041F00895853009F444C0863009F44E
:104A80004FC0089580911401681780F4861B8093AD
:104A900014011F928F9380E396E09F938F930E945F
:104AA00071070F900F900F900F90089580E0EFCF57
:104AB00080911301681740F4861B809313011F92A5
:104AC0008F938EE196E0E9CF80E0F7CF80911201DD
:104AD000681740F4861B809312011F928F938BE01E
:104AE00096E0DBCF80E0F7CF80911101681740F4AA
:104AF000861B809311011F928F9386EF95E0CDCF97
:104B000080E0F7CF80911001681740F4861B8093F6
:104B100010011F928F938DED95E0BFCF80E0F7CF0E
:104B200080910F01681740F4861B80930F011F923C
:104B30008F9382EC95E0B1CF80E0F7CFCF93DF93F6
:104B400000D000D0CDB7DEB789831F928F9387EC5A
:104B500098E09F938F930E94710781E090E0A0E01E
:104B6000B0E09C01AD01098004C0220F331F441F37
:104B7000551F0A94D2F729833A834B835C83CA0179
:104B8000B9010E94A51A0F900F900F900F900F90EF
:104B90000F900F900F90DF91CF910C940117CF934E
:104BA0008A3258F48630A0F0EAEFE80FE43280F45D
:104BB000F0E0ED5DF44D0C94A02A833478F48A3350
:104BC00008F01EC2853309F415C2883309F44EC1BA
:104BD0008BED9AE00E94D80680E046C1833409F448
:104BE00009C28834A9F70E94011786EE9CE00E9452
:104BF000D8069FEF23ED80E3915020408040E1F7FD
:104C000000C000000E94C21E2EC18BEF9CE00E94DB
:104C1000D8068BEC9AE00E94D8060E949B211F9236
:104C20008F9388EC9AE09F938F930E94710786EC94
:104C30009AE00E94D8060E949221C82F83EB9AE046
:104C40000E94D8061F92CF938EEA9AE09F938F938B
:104C50000E9471078CEA9AE00E94D80682EA9AE0E4
:104C60000E94D8068C2F81701F928F938FE99AE053
:104C70009F938F930E9471078DE99AE00E94D80656
:104C800083E99AE00E94D806C1FB882780F91F9229
:104C90008F9380E99AE09F938F930E9471078EE82B
:104CA0009AE00E94D80682E89AE00E94D806C2FBE9
:104CB000882780F91F928F938FE79AE09F938F93B5
:104CC0000E9471078DE79AE00E94D80684E79AE077
:104CD0000E94D806C3FBCC27C0F91F92CF9381E76F
:104CE0009AE09F938F930E9471078FE69AE00E944B
:104CF000D8060E94A421C82F8BE59AE00E94D8060E
:104D00001F92CF9386E59AE09F938F930E9471073D
:104D100084E59AE00E94D8068BE39AE00E94D806C8
:104D20008C2F81701F928F9388E39AE09F938F93CB
:104D30000E9471078DB79EB780960FB6F8949EBFFC
:104D40000FBE8DBF86E39AE00E94D8068FE19AE0FD
:104D50000E94D806C1FB882780F91F928F938CE1AF
:104D60009AE09F938F930E9471078AE19AE00E94D4
:104D7000D80688E09AE00E94D806C2FB882780F90E
:104D80001F928F9385E09AE09F938F930E94710703
:104D900083E09AE00E94D80681EF99E00E94D8064D
:104DA000C3FB882780F91F928F938EEE99E09F9323
:104DB0008F930E9471078CEE99E00E94D80682EED4
:104DC00099E00E94D806C4FB882780F91F928F9330
:104DD0008FED99E09F938F930E9471078DED99E07D
:104DE0000E94D8068BEC99E00E94D806C5FB882764
:104DF00080F91F928F9388EC99E09F938F930E9484
:104E0000710786EC99E00E94D8068AEA99E00E9430
:104E1000D806C6FB882780F91F928F9387EA99E00E
:104E20009F938F930E94710785EA99E00E94D806AC
:104E30008DE999E00E94D806C7FBCC27C0F91F92E4
:104E4000CF938AE999E09F938F930E94710788E935
:104E500099E00E94D8068DB79EB74C960FB6F8948D
:104E60009EBF0FBE8DBF81E0CF91089583EF98E084
:104E70000E94D806F8CF80911802807F8093180294
:104E80008CEC98E00E94D80687EF9CE00E94D80640
:104E900081E080932902E7CF8091180280FF0AC049
:104EA00089ED9CE00E94D80680911802807F809353
:104EB0001802D9CF8DEC9CE00E94D8068091180290
:104EC0008160F5CF90911802892F8D7F91FF8260CC
:104ED0008093180281FF03C080EC9CE0EDCF82EB51
:104EE0009CE0C6CF90911802892F8B7F92FF84603F
:104EF0008093180282FF03C083EA9CE0DDCF83E940
:104F00009CE0B6CF90911802892F877F93FF88602D
:104F10008093180283FF03C087E89CE0CDCF8AE727
:104F20009CE0A6CF8BE69CE00E94D80682E49CE041
:104F30000E94D8068DE09CE00E94D8068FED9BE091
:104F40000E94D8068AE99BE00E94D8068EE69BE084
:104F50008FCF80E69BE00E94D8060E9441111F92ED
:104F60008F9386E49BE09F938F930E9471078091BB
:104F70000B011F928F938FE29BE09F938F930E9470
:104F800071078091A6011F928F938CE19BE09F9304
:104F90008F930E94710780910C011F928F9389E07B
:104FA0009BE09F938F930E9471070E945A1E9F93CC
:104FB0008F937F936F9382EF9AE09F938F930E94DA
:104FC00071078DB79EB746960FB6F8949EBF0FBE79
:104FD0008DBF49CF0E94011780910C0191E0892774
:104FE00080930C01882319F088EE9AE041CF8DED73
:104FF0009AE03ECF80E00E949E2535CF8D51FBCFB9
:105000008953F9CF80E008950C940228CF93C82FDC
:10501000809129028130C1F0823009F44CC08111A5
:105020003AC1E0910D01F0910E018081823209F0C8
:1050300034C18C2F0E94022881111EC08C2F0E9427
:10504000CF258170CF910895E0910D01F0910E016F
:105050008081823271F38C2F0E94042881111BC041
:10506000C431D9F060F4CB3071F0C031D1F08DEBA8
:1050700098E00E94D80613C081E090E0E2CFC932E8
:1050800061F0C833A1F78CEC98E00E94D80683EC5D
:1050900098E00E94D80681E0D4CF1092290280E0E7
:1050A000D0CF0E9493248FEB98E00E94D80682E034
:1050B00080932902F0CFC93209F442C048F5C331C8
:1050C00009F44EC050F4C73009F4CBC0CB30A9F17D
:1050D00081E697E00E94D80641C0C43189F182EE92
:1050E0008C0F8630A8F7CD51C093280280912802FA
:1050F000882309F4CDC01F928F938BE597E09F938F
:105100008F930E9471070F900F900F900F9026C001
:10511000CE3409F4A4C050F4C83379F06AE0CB343B
:10512000B9F6809128020E94AA24E0CFC13509F483
:1051300090C061E0C235A9F3CBCF0E949324D6CFB3
:1051400080912802882319F010922802CFCF80E79F
:1051500097E00E94D80681E08093290281E072CF17
:105160008AE497E00E94D80688E397E00E94D80678
:10517000809114011F928F9385E397E09F938F9303
:105180000E94710783E397E00E94D80681E297E0CE
:105190000E94D806809113011F928F938EE197E0B1
:1051A0009F938F930E9471078CE197E00E94D8062D
:1051B0008DE097E00E94D806809112011F928F9394
:1051C0008AE097E09F938F930E94710788E097E0B1
:1051D0000E94D80687EF96E00E94D80680911101C0
:1051E0001F928F9384EF96E09F938F930E94710795
:1051F00082EF96E00E94D8068DED96E00E94D806D8
:10520000809110011F928F938AED96E09F938F9368
:105210000E94710788ED96E00E94D80681EC96E026
:105220000E94D80680910F011F928F938EEB96E01B
:105230009F938F930E9471078CEB96E00E94D80693
:105240008DB79EB748960FB6F8949EBF0FBE8DBF20
:105250004DCF61E0809128020E94302547CF6AE05F
:10526000F9CF8EE18093140182E3809313018AE0E9
:105270008093120184E18093110188E080931001F2
:1052800088E280930F0183E697E00E94D8062ECF34
:1052900088E597E01FCF1092290280E0D3CE0E94CC
:1052A00056296894B1110C94E52908950E94CA29E1
:1052B00088F09F5798F0B92F9927B751B0F0E1F0D7
:1052C000660F771F881F991F1AF0BA95C9F714C087
:1052D000B13091F00E94E429B1E008950C94E429E2
:1052E000672F782F8827B85F39F0B93FCCF38695C0
:1052F00077956795B395D9F73EF49095809570951D
:1053000061957F4F8F4F9F4F0895E89409C097FB99
:105310003EF490958095709561957F4F8F4F9F4F8C
:105320009923A9F0F92F96E9BB279395F6958795D0
:1053300077956795B795F111F8CFFAF4BB0F11F493
:1053400060FF1BC06F5F7F4F8F4F9F4F16C088233A
:1053500011F096E911C0772321F09EE8872F762F70
:1053600005C0662371F096E8862F70E060E02AF0B1
:105370009A95660F771F881FDAF7880F969587959D
:1053800097F9089557FD9058440F551F59F05F3F06
:1053900071F04795880F97FB991F61F09F3F79F057
:1053A00087950895121613061406551FF2CF4695D9
:1053B000F1DF08C0161617061806991FF1CF86955B
:1053C0007105610508940895E894BB27662777273F
:1053D000CB0197F908950E94FE290C946F2A0E9430
:1053E000612A38F00E94682A20F0952311F00C946D
:1053F000582A0C945E2A11240C94E5290E94C22993
:1054000070F3959FC1F3950F50E0551F629FF00117
:10541000729FBB27F00DB11D639FAA27F00DB11D30
:10542000AA1F649F6627B00DA11D661F829F2227B9
:10543000B00DA11D621F739FB00DA11D621F839F40
:10544000A00D611D221F749F3327A00D611D231F16
:10545000849F600D211D822F762F6A2F11249F5764
:1054600050409AF0F1F088234AF0EE0FFF1FBB1F67
:10547000661F771F881F91505040A9F79E3F510526
:1054800080F00C94582A0C94E5295F3FE4F3983E91
:10549000D4F3869577956795B795F795E7959F5FD0
:1054A000C1F7FE2B880F911D9695879597F9089562
:1054B00097F99F6780E870E060E008959FEF80ECC7
:1054C000089500240A94161617061806090608956A
:1054D00000240A9412161306140605060895092ED0
:1054E0000394000C11F4882352F0BB0F40F4BF2B3F
:1054F00011F460FF04C06F5F7F4F8F4F9F4F08957F
:10550000991B79E004C0991F961708F0961B881F15
:105510007A95C9F78095089597FB072E16F40094A5
:1055200007D077FD09D00E94A62A07FC05D03EF4DB
:10553000909581959F4F0895709561957F4F08953F
:10554000EE0FFF1F0590F491E02D0994AA1BBB1BE1
:1055500051E107C0AA1FBB1FA617B70710F0A61B73
:10556000B70B881F991F5A95A9F780959095BC0194
:10557000CD010895F999FECF92BD81BDF89A992782
:1055800080B50895A8E1B0E042E050E00C94DD2A37
:10559000262FF999FECF1FBA92BD81BD20BD0FB64F
:1055A000F894FA9AF99A0FBE019608950E94C82AB3
:1055B000272F0C94C92ADC01CB01FC01F999FECFFD
:1055C00006C0F2BDE1BDF89A319600B40D9241508B
:1055D0005040B8F70895F894FFCF18103C104210CF
:1055E0003C1042109910BB1042100F111C11EB130C
:1055F000EB1328142814BA14F01486148614091511
:10560000861430163016C31686148614DA16452210
:105610004B224E22542269226F22732277227B2250
:1056200057225C22602266227F2285228922DD2287
:10563000E322E722EB22EF229A229A229A229A224E
:10564000F322F922FD223B274C270526E825E825F1
:105650003627E825E8257227E8258227EA27E82566
:10566000E825E825E825A927E825E8259227E82563
:105670006227E825E825FE27FE27FE27FE27FE27CE
:0E568000FE27FE27FE27FE27FA27E825FA2739
:10568E00059A09880A650A310AFE090101060228EF
:10569E0008140A321E404D362239BB046E043804FB
:1056AE001604DD035003690382039B03BB03E20070
:1056BE00E900EA00B500B600B300B400B700CD00B3
:1056CE00CC0083018A01920194012102230224025B
:1056DE00250226022702E944EA44B544B644B344FF
:1056EE00B444B744CD44CC4483458A459245944551
:0C56FE0021462346244625462646274622
:00000001FF
